{
  "_format": "hh-sol-artifact-1",
  "contractName": "ObrasRepo",
  "sourceName": "contracts/ObrasRepo.sol",
  "abi": [
    {
      "inputs": [],
      "stateMutability": "nonpayable",
      "type": "constructor"
    },
    {
      "anonymous": false,
      "inputs": [
        {
          "indexed": true,
          "internalType": "address",
          "name": "account",
          "type": "address"
        },
        {
          "indexed": true,
          "internalType": "address",
          "name": "operator",
          "type": "address"
        },
        {
          "indexed": false,
          "internalType": "bool",
          "name": "approved",
          "type": "bool"
        }
      ],
      "name": "ApprovalForAll",
      "type": "event"
    },
    {
      "anonymous": false,
      "inputs": [
        {
          "indexed": false,
          "internalType": "uint256",
          "name": "id",
          "type": "uint256"
        },
        {
          "indexed": false,
          "internalType": "address",
          "name": "autor",
          "type": "address"
        },
        {
          "indexed": false,
          "internalType": "string",
          "name": "metadataURI",
          "type": "string"
        }
      ],
      "name": "ObraCreada",
      "type": "event"
    },
    {
      "anonymous": false,
      "inputs": [
        {
          "indexed": true,
          "internalType": "address",
          "name": "previousOwner",
          "type": "address"
        },
        {
          "indexed": true,
          "internalType": "address",
          "name": "newOwner",
          "type": "address"
        }
      ],
      "name": "OwnershipTransferred",
      "type": "event"
    },
    {
      "anonymous": false,
      "inputs": [
        {
          "indexed": true,
          "internalType": "address",
          "name": "operator",
          "type": "address"
        },
        {
          "indexed": true,
          "internalType": "address",
          "name": "from",
          "type": "address"
        },
        {
          "indexed": true,
          "internalType": "address",
          "name": "to",
          "type": "address"
        },
        {
          "indexed": false,
          "internalType": "uint256[]",
          "name": "ids",
          "type": "uint256[]"
        },
        {
          "indexed": false,
          "internalType": "uint256[]",
          "name": "values",
          "type": "uint256[]"
        }
      ],
      "name": "TransferBatch",
      "type": "event"
    },
    {
      "anonymous": false,
      "inputs": [
        {
          "indexed": true,
          "internalType": "address",
          "name": "operator",
          "type": "address"
        },
        {
          "indexed": true,
          "internalType": "address",
          "name": "from",
          "type": "address"
        },
        {
          "indexed": true,
          "internalType": "address",
          "name": "to",
          "type": "address"
        },
        {
          "indexed": false,
          "internalType": "uint256",
          "name": "id",
          "type": "uint256"
        },
        {
          "indexed": false,
          "internalType": "uint256",
          "name": "value",
          "type": "uint256"
        }
      ],
      "name": "TransferSingle",
      "type": "event"
    },
    {
      "anonymous": false,
      "inputs": [
        {
          "indexed": false,
          "internalType": "string",
          "name": "value",
          "type": "string"
        },
        {
          "indexed": true,
          "internalType": "uint256",
          "name": "id",
          "type": "uint256"
        }
      ],
      "name": "URI",
      "type": "event"
    },
    {
      "inputs": [
        {
          "internalType": "address",
          "name": "account",
          "type": "address"
        },
        {
          "internalType": "uint256",
          "name": "id",
          "type": "uint256"
        }
      ],
      "name": "balanceOf",
      "outputs": [
        {
          "internalType": "uint256",
          "name": "",
          "type": "uint256"
        }
      ],
      "stateMutability": "view",
      "type": "function"
    },
    {
      "inputs": [
        {
          "internalType": "address[]",
          "name": "accounts",
          "type": "address[]"
        },
        {
          "internalType": "uint256[]",
          "name": "ids",
          "type": "uint256[]"
        }
      ],
      "name": "balanceOfBatch",
      "outputs": [
        {
          "internalType": "uint256[]",
          "name": "",
          "type": "uint256[]"
        }
      ],
      "stateMutability": "view",
      "type": "function"
    },
    {
      "inputs": [],
      "name": "cantidadObras",
      "outputs": [
        {
          "internalType": "uint256",
          "name": "",
          "type": "uint256"
        }
      ],
      "stateMutability": "view",
      "type": "function"
    },
    {
      "inputs": [
        {
          "internalType": "address",
          "name": "account",
          "type": "address"
        },
        {
          "internalType": "address",
          "name": "operator",
          "type": "address"
        }
      ],
      "name": "isApprovedForAll",
      "outputs": [
        {
          "internalType": "bool",
          "name": "",
          "type": "bool"
        }
      ],
      "stateMutability": "view",
      "type": "function"
    },
    {
      "inputs": [],
      "name": "owner",
      "outputs": [
        {
          "internalType": "address",
          "name": "",
          "type": "address"
        }
      ],
      "stateMutability": "view",
      "type": "function"
    },
    {
      "inputs": [],
      "name": "renounceOwnership",
      "outputs": [],
      "stateMutability": "nonpayable",
      "type": "function"
    },
    {
      "inputs": [
        {
          "internalType": "address",
          "name": "from",
          "type": "address"
        },
        {
          "internalType": "address",
          "name": "to",
          "type": "address"
        },
        {
          "internalType": "uint256[]",
          "name": "ids",
          "type": "uint256[]"
        },
        {
          "internalType": "uint256[]",
          "name": "amounts",
          "type": "uint256[]"
        },
        {
          "internalType": "bytes",
          "name": "data",
          "type": "bytes"
        }
      ],
      "name": "safeBatchTransferFrom",
      "outputs": [],
      "stateMutability": "nonpayable",
      "type": "function"
    },
    {
      "inputs": [
        {
          "internalType": "address",
          "name": "from",
          "type": "address"
        },
        {
          "internalType": "address",
          "name": "to",
          "type": "address"
        },
        {
          "internalType": "uint256",
          "name": "id",
          "type": "uint256"
        },
        {
          "internalType": "uint256",
          "name": "amount",
          "type": "uint256"
        },
        {
          "internalType": "bytes",
          "name": "data",
          "type": "bytes"
        }
      ],
      "name": "safeTransferFrom",
      "outputs": [],
      "stateMutability": "nonpayable",
      "type": "function"
    },
    {
      "inputs": [
        {
          "internalType": "address",
          "name": "operator",
          "type": "address"
        },
        {
          "internalType": "bool",
          "name": "approved",
          "type": "bool"
        }
      ],
      "name": "setApprovalForAll",
      "outputs": [],
      "stateMutability": "nonpayable",
      "type": "function"
    },
    {
      "inputs": [
        {
          "internalType": "string",
          "name": "metadataURI",
          "type": "string"
        }
      ],
      "name": "subirObra",
      "outputs": [],
      "stateMutability": "nonpayable",
      "type": "function"
    },
    {
      "inputs": [
        {
          "internalType": "bytes4",
          "name": "interfaceId",
          "type": "bytes4"
        }
      ],
      "name": "supportsInterface",
      "outputs": [
        {
          "internalType": "bool",
          "name": "",
          "type": "bool"
        }
      ],
      "stateMutability": "view",
      "type": "function"
    },
    {
      "inputs": [
        {
          "internalType": "address",
          "name": "newOwner",
          "type": "address"
        }
      ],
      "name": "transferOwnership",
      "outputs": [],
      "stateMutability": "nonpayable",
      "type": "function"
    },
    {
      "inputs": [
        {
          "internalType": "uint256",
          "name": "id",
          "type": "uint256"
        }
      ],
      "name": "uri",
      "outputs": [
        {
          "internalType": "string",
          "name": "",
          "type": "string"
        }
      ],
      "stateMutability": "view",
      "type": "function"
    }
  ],
  "bytecode": "0x608060405234801561001057600080fd5b50604051806020016040528060008152506100308161005260201b60201c565b5061004d61004261006560201b60201c565b61006d60201b60201c565b610455565b80600290816100619190610383565b5050565b600033905090565b6000600360009054906101000a900473ffffffffffffffffffffffffffffffffffffffff16905081600360006101000a81548173ffffffffffffffffffffffffffffffffffffffff021916908373ffffffffffffffffffffffffffffffffffffffff1602179055508173ffffffffffffffffffffffffffffffffffffffff168173ffffffffffffffffffffffffffffffffffffffff167f8be0079c531659141344cd1fd0a4f28419497f9722a3daafe3b4186f6b6457e060405160405180910390a35050565b600081519050919050565b7f4e487b7100000000000000000000000000000000000000000000000000000000600052604160045260246000fd5b7f4e487b7100000000000000000000000000000000000000000000000000000000600052602260045260246000fd5b600060028204905060018216806101b457607f821691505b6020821081036101c7576101c661016d565b5b50919050565b60008190508160005260206000209050919050565b60006020601f8301049050919050565b600082821b905092915050565b60006008830261022f7fffffffffffffffffffffffffffffffffffffffffffffffffffffffffffffffff826101f2565b61023986836101f2565b95508019841693508086168417925050509392505050565b6000819050919050565b6000819050919050565b600061028061027b61027684610251565b61025b565b610251565b9050919050565b6000819050919050565b61029a83610265565b6102ae6102a682610287565b8484546101ff565b825550505050565b600090565b6102c36102b6565b6102ce818484610291565b505050565b5b818110156102f2576102e76000826102bb565b6001810190506102d4565b5050565b601f82111561033757610308816101cd565b610311846101e2565b81016020851015610320578190505b61033461032c856101e2565b8301826102d3565b50505b505050565b600082821c905092915050565b600061035a6000198460080261033c565b1980831691505092915050565b60006103738383610349565b9150826002028217905092915050565b61038c82610133565b67ffffffffffffffff8111156103a5576103a461013e565b5b6103af825461019c565b6103ba8282856102f6565b600060209050601f8311600181146103ed57600084156103db578287015190505b6103e58582610367565b86555061044d565b601f1984166103fb866101cd565b60005b82811015610423578489015182556001820191506020850194506020810190506103fe565b86831015610440578489015161043c601f891682610349565b8355505b6001600288020188555050505b505050505050565b6130f3806104646000396000f3fe608060405234801561001057600080fd5b50600436106100ce5760003560e01c80638319c1c51161008c578063ae2e873611610066578063ae2e873614610211578063e985e9c51461022d578063f242432a1461025d578063f2fde38b14610279576100ce565b80638319c1c5146101b95780638da5cb5b146101d7578063a22cb465146101f5576100ce565b8062fdd58e146100d357806301ffc9a7146101035780630e89341c146101335780632eb2c2d6146101635780634e1273f41461017f578063715018a6146101af575b600080fd5b6100ed60048036038101906100e8919061199e565b610295565b6040516100fa91906119ed565b60405180910390f35b61011d60048036038101906101189190611a60565b61035d565b60405161012a9190611aa8565b60405180910390f35b61014d60048036038101906101489190611ac3565b61043f565b60405161015a9190611b80565b60405180910390f35b61017d60048036038101906101789190611d9f565b610546565b005b61019960048036038101906101949190611f31565b6105e7565b6040516101a69190612067565b60405180910390f35b6101b76106fa565b005b6101c161070e565b6040516101ce91906119ed565b60405180910390f35b6101df61071f565b6040516101ec9190612098565b60405180910390f35b61020f600480360381019061020a91906120df565b610749565b005b61022b600480360381019061022691906121c0565b61075f565b005b61024760048036038101906102429190612209565b610837565b6040516102549190611aa8565b60405180910390f35b61027760048036038101906102729190612249565b6108cb565b005b610293600480360381019061028e91906122e0565b61096c565b005b60008073ffffffffffffffffffffffffffffffffffffffff168373ffffffffffffffffffffffffffffffffffffffff1603610305576040517f08c379a00000000000000000000000000000000000000000000000000000000081526004016102fc9061237f565b60405180910390fd5b60008083815260200190815260200160002060008473ffffffffffffffffffffffffffffffffffffffff1673ffffffffffffffffffffffffffffffffffffffff16815260200190815260200160002054905092915050565b60007fd9b67a26000000000000000000000000000000000000000000000000000000007bffffffffffffffffffffffffffffffffffffffffffffffffffffffff1916827bffffffffffffffffffffffffffffffffffffffffffffffffffffffff1916148061042857507f0e89341c000000000000000000000000000000000000000000000000000000007bffffffffffffffffffffffffffffffffffffffffffffffffffffffff1916827bffffffffffffffffffffffffffffffffffffffffffffffffffffffff1916145b806104385750610437826109ef565b5b9050919050565b60606000600560008481526020019081526020016000208054610461906123ce565b9050116104a3576040517f08c379a000000000000000000000000000000000000000000000000000000000815260040161049a9061244b565b60405180910390fd5b6005600083815260200190815260200160002080546104c1906123ce565b80601f01602080910402602001604051908101604052809291908181526020018280546104ed906123ce565b801561053a5780601f1061050f5761010080835404028352916020019161053a565b820191906000526020600020905b81548152906001019060200180831161051d57829003601f168201915b50505050509050919050565b61054e610a59565b73ffffffffffffffffffffffffffffffffffffffff168573ffffffffffffffffffffffffffffffffffffffff16148061059457506105938561058e610a59565b610837565b5b6105d3576040517f08c379a00000000000000000000000000000000000000000000000000000000081526004016105ca906124dd565b60405180910390fd5b6105e08585858585610a61565b5050505050565b6060815183511461062d576040517f08c379a00000000000000000000000000000000000000000000000000000000081526004016106249061256f565b60405180910390fd5b6000835167ffffffffffffffff81111561064a57610649611ba7565b5b6040519080825280602002602001820160405280156106785781602001602082028036833780820191505090505b50905060005b84518110156106ef576106c585828151811061069d5761069c61258f565b5b60200260200101518583815181106106b8576106b761258f565b5b6020026020010151610295565b8282815181106106d8576106d761258f565b5b60200260200101818152505080600101905061067e565b508091505092915050565b610702610d7c565b61070c6000610dfa565b565b600061071a6004610ec0565b905090565b6000600360009054906101000a900473ffffffffffffffffffffffffffffffffffffffff16905090565b61075b610754610a59565b8383610ece565b5050565b60008151116107a3576040517f08c379a000000000000000000000000000000000000000000000000000000000815260040161079a9061260a565b60405180910390fd5b60006107af6004610ec0565b9050816005600083815260200190815260200160002090816107d191906127d6565b506107ee338260016040518060200160405280600081525061103a565b7f96d8274765515d01263f04aab290e84e2946510a9c3dc566d80f91d51d89f59f813384604051610821939291906128a8565b60405180910390a161083360046111ea565b5050565b6000600160008473ffffffffffffffffffffffffffffffffffffffff1673ffffffffffffffffffffffffffffffffffffffff16815260200190815260200160002060008373ffffffffffffffffffffffffffffffffffffffff1673ffffffffffffffffffffffffffffffffffffffff16815260200190815260200160002060009054906101000a900460ff16905092915050565b6108d3610a59565b73ffffffffffffffffffffffffffffffffffffffff168573ffffffffffffffffffffffffffffffffffffffff161480610919575061091885610913610a59565b610837565b5b610958576040517f08c379a000000000000000000000000000000000000000000000000000000000815260040161094f906124dd565b60405180910390fd5b6109658585858585611200565b5050505050565b610974610d7c565b600073ffffffffffffffffffffffffffffffffffffffff168173ffffffffffffffffffffffffffffffffffffffff16036109e3576040517f08c379a00000000000000000000000000000000000000000000000000000000081526004016109da90612958565b60405180910390fd5b6109ec81610dfa565b50565b60007f01ffc9a7000000000000000000000000000000000000000000000000000000007bffffffffffffffffffffffffffffffffffffffffffffffffffffffff1916827bffffffffffffffffffffffffffffffffffffffffffffffffffffffff1916149050919050565b600033905090565b8151835114610aa5576040517f08c379a0000000000000000000000000000000000000000000000000000000008152600401610a9c906129ea565b60405180910390fd5b600073ffffffffffffffffffffffffffffffffffffffff168473ffffffffffffffffffffffffffffffffffffffff1603610b14576040517f08c379a0000000000000000000000000000000000000000000000000000000008152600401610b0b90612a7c565b60405180910390fd5b6000610b1e610a59565b9050610b2e81878787878761149b565b60005b8451811015610cd9576000858281518110610b4f57610b4e61258f565b5b602002602001015190506000858381518110610b6e57610b6d61258f565b5b60200260200101519050600080600084815260200190815260200160002060008b73ffffffffffffffffffffffffffffffffffffffff1673ffffffffffffffffffffffffffffffffffffffff16815260200190815260200160002054905081811015610c0f576040517f08c379a0000000000000000000000000000000000000000000000000000000008152600401610c0690612b0e565b60405180910390fd5b81810360008085815260200190815260200160002060008c73ffffffffffffffffffffffffffffffffffffffff1673ffffffffffffffffffffffffffffffffffffffff168152602001908152602001600020819055508160008085815260200190815260200160002060008b73ffffffffffffffffffffffffffffffffffffffff1673ffffffffffffffffffffffffffffffffffffffff1681526020019081526020016000206000828254610cc49190612b5d565b92505081905550505050806001019050610b31565b508473ffffffffffffffffffffffffffffffffffffffff168673ffffffffffffffffffffffffffffffffffffffff168273ffffffffffffffffffffffffffffffffffffffff167f4a39dc06d4c0dbc64b70af90fd698a233a518aa5d07e595d983b8c0526c8f7fb8787604051610d50929190612b91565b60405180910390a4610d668187878787876114a3565b610d748187878787876114ab565b505050505050565b610d84610a59565b73ffffffffffffffffffffffffffffffffffffffff16610da261071f565b73ffffffffffffffffffffffffffffffffffffffff1614610df8576040517f08c379a0000000000000000000000000000000000000000000000000000000008152600401610def90612c14565b60405180910390fd5b565b6000600360009054906101000a900473ffffffffffffffffffffffffffffffffffffffff16905081600360006101000a81548173ffffffffffffffffffffffffffffffffffffffff021916908373ffffffffffffffffffffffffffffffffffffffff1602179055508173ffffffffffffffffffffffffffffffffffffffff168173ffffffffffffffffffffffffffffffffffffffff167f8be0079c531659141344cd1fd0a4f28419497f9722a3daafe3b4186f6b6457e060405160405180910390a35050565b600081600001549050919050565b8173ffffffffffffffffffffffffffffffffffffffff168373ffffffffffffffffffffffffffffffffffffffff1603610f3c576040517f08c379a0000000000000000000000000000000000000000000000000000000008152600401610f3390612ca6565b60405180910390fd5b80600160008573ffffffffffffffffffffffffffffffffffffffff1673ffffffffffffffffffffffffffffffffffffffff16815260200190815260200160002060008473ffffffffffffffffffffffffffffffffffffffff1673ffffffffffffffffffffffffffffffffffffffff16815260200190815260200160002060006101000a81548160ff0219169083151502179055508173ffffffffffffffffffffffffffffffffffffffff168373ffffffffffffffffffffffffffffffffffffffff167f17307eab39ab6107e8899845ad3d59bd9653f200f220920489ca2b5937696c318360405161102d9190611aa8565b60405180910390a3505050565b600073ffffffffffffffffffffffffffffffffffffffff168473ffffffffffffffffffffffffffffffffffffffff16036110a9576040517f08c379a00000000000000000000000000000000000000000000000000000000081526004016110a090612d38565b60405180910390fd5b60006110b3610a59565b905060006110c085611682565b905060006110cd85611682565b90506110de8360008985858961149b565b8460008088815260200190815260200160002060008973ffffffffffffffffffffffffffffffffffffffff1673ffffffffffffffffffffffffffffffffffffffff168152602001908152602001600020600082825461113d9190612b5d565b925050819055508673ffffffffffffffffffffffffffffffffffffffff16600073ffffffffffffffffffffffffffffffffffffffff168473ffffffffffffffffffffffffffffffffffffffff167fc3d58168c5ae7397731d063d5bbf3d657854427343f4c083240f7aacaa2d0f6289896040516111bb929190612d58565b60405180910390a46111d2836000898585896114a3565b6111e1836000898989896116fc565b50505050505050565b6001816000016000828254019250508190555050565b600073ffffffffffffffffffffffffffffffffffffffff168473ffffffffffffffffffffffffffffffffffffffff160361126f576040517f08c379a000000000000000000000000000000000000000000000000000000000815260040161126690612a7c565b60405180910390fd5b6000611279610a59565b9050600061128685611682565b9050600061129385611682565b90506112a383898985858961149b565b600080600088815260200190815260200160002060008a73ffffffffffffffffffffffffffffffffffffffff1673ffffffffffffffffffffffffffffffffffffffff1681526020019081526020016000205490508581101561133a576040517f08c379a000000000000000000000000000000000000000000000000000000000815260040161133190612b0e565b60405180910390fd5b85810360008089815260200190815260200160002060008b73ffffffffffffffffffffffffffffffffffffffff1673ffffffffffffffffffffffffffffffffffffffff168152602001908152602001600020819055508560008089815260200190815260200160002060008a73ffffffffffffffffffffffffffffffffffffffff1673ffffffffffffffffffffffffffffffffffffffff16815260200190815260200160002060008282546113ef9190612b5d565b925050819055508773ffffffffffffffffffffffffffffffffffffffff168973ffffffffffffffffffffffffffffffffffffffff168573ffffffffffffffffffffffffffffffffffffffff167fc3d58168c5ae7397731d063d5bbf3d657854427343f4c083240f7aacaa2d0f628a8a60405161146c929190612d58565b60405180910390a4611482848a8a86868a6114a3565b611490848a8a8a8a8a6116fc565b505050505050505050565b505050505050565b505050505050565b6114ca8473ffffffffffffffffffffffffffffffffffffffff166118d3565b1561167a578373ffffffffffffffffffffffffffffffffffffffff1663bc197c8187878686866040518663ffffffff1660e01b8152600401611510959493929190612dd6565b6020604051808303816000875af192505050801561154c57506040513d601f19601f820116820180604052508101906115499190612e53565b60015b6115f157611558612e8d565b806308c379a0036115b4575061156c612eaf565b8061157757506115b6565b806040517f08c379a00000000000000000000000000000000000000000000000000000000081526004016115ab9190611b80565b60405180910390fd5b505b6040517f08c379a00000000000000000000000000000000000000000000000000000000081526004016115e890612fb1565b60405180910390fd5b63bc197c8160e01b7bffffffffffffffffffffffffffffffffffffffffffffffffffffffff1916817bffffffffffffffffffffffffffffffffffffffffffffffffffffffff191614611678576040517f08c379a000000000000000000000000000000000000000000000000000000000815260040161166f90613043565b60405180910390fd5b505b505050505050565b60606000600167ffffffffffffffff8111156116a1576116a0611ba7565b5b6040519080825280602002602001820160405280156116cf5781602001602082028036833780820191505090505b50905082816000815181106116e7576116e661258f565b5b60200260200101818152505080915050919050565b61171b8473ffffffffffffffffffffffffffffffffffffffff166118d3565b156118cb578373ffffffffffffffffffffffffffffffffffffffff1663f23a6e6187878686866040518663ffffffff1660e01b8152600401611761959493929190613063565b6020604051808303816000875af192505050801561179d57506040513d601f19601f8201168201806040525081019061179a9190612e53565b60015b611842576117a9612e8d565b806308c379a00361180557506117bd612eaf565b806117c85750611807565b806040517f08c379a00000000000000000000000000000000000000000000000000000000081526004016117fc9190611b80565b60405180910390fd5b505b6040517f08c379a000000000000000000000000000000000000000000000000000000000815260040161183990612fb1565b60405180910390fd5b63f23a6e6160e01b7bffffffffffffffffffffffffffffffffffffffffffffffffffffffff1916817bffffffffffffffffffffffffffffffffffffffffffffffffffffffff1916146118c9576040517f08c379a00000000000000000000000000000000000000000000000000000000081526004016118c090613043565b60405180910390fd5b505b505050505050565b6000808273ffffffffffffffffffffffffffffffffffffffff163b119050919050565b6000604051905090565b600080fd5b600080fd5b600073ffffffffffffffffffffffffffffffffffffffff82169050919050565b60006119358261190a565b9050919050565b6119458161192a565b811461195057600080fd5b50565b6000813590506119628161193c565b92915050565b6000819050919050565b61197b81611968565b811461198657600080fd5b50565b60008135905061199881611972565b92915050565b600080604083850312156119b5576119b4611900565b5b60006119c385828601611953565b92505060206119d485828601611989565b9150509250929050565b6119e781611968565b82525050565b6000602082019050611a0260008301846119de565b92915050565b60007fffffffff0000000000000000000000000000000000000000000000000000000082169050919050565b611a3d81611a08565b8114611a4857600080fd5b50565b600081359050611a5a81611a34565b92915050565b600060208284031215611a7657611a75611900565b5b6000611a8484828501611a4b565b91505092915050565b60008115159050919050565b611aa281611a8d565b82525050565b6000602082019050611abd6000830184611a99565b92915050565b600060208284031215611ad957611ad8611900565b5b6000611ae784828501611989565b91505092915050565b600081519050919050565b600082825260208201905092915050565b60005b83811015611b2a578082015181840152602081019050611b0f565b60008484015250505050565b6000601f19601f8301169050919050565b6000611b5282611af0565b611b5c8185611afb565b9350611b6c818560208601611b0c565b611b7581611b36565b840191505092915050565b60006020820190508181036000830152611b9a8184611b47565b905092915050565b600080fd5b7f4e487b7100000000000000000000000000000000000000000000000000000000600052604160045260246000fd5b611bdf82611b36565b810181811067ffffffffffffffff82111715611bfe57611bfd611ba7565b5b80604052505050565b6000611c116118f6565b9050611c1d8282611bd6565b919050565b600067ffffffffffffffff821115611c3d57611c3c611ba7565b5b602082029050602081019050919050565b600080fd5b6000611c66611c6184611c22565b611c07565b90508083825260208201905060208402830185811115611c8957611c88611c4e565b5b835b81811015611cb25780611c9e8882611989565b845260208401935050602081019050611c8b565b5050509392505050565b600082601f830112611cd157611cd0611ba2565b5b8135611ce1848260208601611c53565b91505092915050565b600080fd5b600067ffffffffffffffff821115611d0a57611d09611ba7565b5b611d1382611b36565b9050602081019050919050565b82818337600083830152505050565b6000611d42611d3d84611cef565b611c07565b905082815260208101848484011115611d5e57611d5d611cea565b5b611d69848285611d20565b509392505050565b600082601f830112611d8657611d85611ba2565b5b8135611d96848260208601611d2f565b91505092915050565b600080600080600060a08688031215611dbb57611dba611900565b5b6000611dc988828901611953565b9550506020611dda88828901611953565b945050604086013567ffffffffffffffff811115611dfb57611dfa611905565b5b611e0788828901611cbc565b935050606086013567ffffffffffffffff811115611e2857611e27611905565b5b611e3488828901611cbc565b925050608086013567ffffffffffffffff811115611e5557611e54611905565b5b611e6188828901611d71565b9150509295509295909350565b600067ffffffffffffffff821115611e8957611e88611ba7565b5b602082029050602081019050919050565b6000611ead611ea884611e6e565b611c07565b90508083825260208201905060208402830185811115611ed057611ecf611c4e565b5b835b81811015611ef95780611ee58882611953565b845260208401935050602081019050611ed2565b5050509392505050565b600082601f830112611f1857611f17611ba2565b5b8135611f28848260208601611e9a565b91505092915050565b60008060408385031215611f4857611f47611900565b5b600083013567ffffffffffffffff811115611f6657611f65611905565b5b611f7285828601611f03565b925050602083013567ffffffffffffffff811115611f9357611f92611905565b5b611f9f85828601611cbc565b9150509250929050565b600081519050919050565b600082825260208201905092915050565b6000819050602082019050919050565b611fde81611968565b82525050565b6000611ff08383611fd5565b60208301905092915050565b6000602082019050919050565b600061201482611fa9565b61201e8185611fb4565b935061202983611fc5565b8060005b8381101561205a5781516120418882611fe4565b975061204c83611ffc565b92505060018101905061202d565b5085935050505092915050565b600060208201905081810360008301526120818184612009565b905092915050565b6120928161192a565b82525050565b60006020820190506120ad6000830184612089565b92915050565b6120bc81611a8d565b81146120c757600080fd5b50565b6000813590506120d9816120b3565b92915050565b600080604083850312156120f6576120f5611900565b5b600061210485828601611953565b9250506020612115858286016120ca565b9150509250929050565b600067ffffffffffffffff82111561213a57612139611ba7565b5b61214382611b36565b9050602081019050919050565b600061216361215e8461211f565b611c07565b90508281526020810184848401111561217f5761217e611cea565b5b61218a848285611d20565b509392505050565b600082601f8301126121a7576121a6611ba2565b5b81356121b7848260208601612150565b91505092915050565b6000602082840312156121d6576121d5611900565b5b600082013567ffffffffffffffff8111156121f4576121f3611905565b5b61220084828501612192565b91505092915050565b600080604083850312156122205761221f611900565b5b600061222e85828601611953565b925050602061223f85828601611953565b9150509250929050565b600080600080600060a0868803121561226557612264611900565b5b600061227388828901611953565b955050602061228488828901611953565b945050604061229588828901611989565b93505060606122a688828901611989565b925050608086013567ffffffffffffffff8111156122c7576122c6611905565b5b6122d388828901611d71565b9150509295509295909350565b6000602082840312156122f6576122f5611900565b5b600061230484828501611953565b91505092915050565b7f455243313135353a2061646472657373207a65726f206973206e6f742061207660008201527f616c6964206f776e657200000000000000000000000000000000000000000000602082015250565b6000612369602a83611afb565b91506123748261230d565b604082019050919050565b600060208201905081810360008301526123988161235c565b9050919050565b7f4e487b7100000000000000000000000000000000000000000000000000000000600052602260045260246000fd5b600060028204905060018216806123e657607f821691505b6020821081036123f9576123f861239f565b5b50919050565b7f456c20746f6b656e206e6f206578697374650000000000000000000000000000600082015250565b6000612435601283611afb565b9150612440826123ff565b602082019050919050565b6000602082019050818103600083015261246481612428565b9050919050565b7f455243313135353a2063616c6c6572206973206e6f7420746f6b656e206f776e60008201527f6572206f7220617070726f766564000000000000000000000000000000000000602082015250565b60006124c7602e83611afb565b91506124d28261246b565b604082019050919050565b600060208201905081810360008301526124f6816124ba565b9050919050565b7f455243313135353a206163636f756e747320616e6420696473206c656e67746860008201527f206d69736d617463680000000000000000000000000000000000000000000000602082015250565b6000612559602983611afb565b9150612564826124fd565b604082019050919050565b600060208201905081810360008301526125888161254c565b9050919050565b7f4e487b7100000000000000000000000000000000000000000000000000000000600052603260045260246000fd5b7f55524920696e76c3a16c69646f00000000000000000000000000000000000000600082015250565b60006125f4600d83611afb565b91506125ff826125be565b602082019050919050565b60006020820190508181036000830152612623816125e7565b9050919050565b60008190508160005260206000209050919050565b60006020601f8301049050919050565b600082821b905092915050565b60006008830261268c7fffffffffffffffffffffffffffffffffffffffffffffffffffffffffffffffff8261264f565b612696868361264f565b95508019841693508086168417925050509392505050565b6000819050919050565b60006126d36126ce6126c984611968565b6126ae565b611968565b9050919050565b6000819050919050565b6126ed836126b8565b6127016126f9826126da565b84845461265c565b825550505050565b600090565b612716612709565b6127218184846126e4565b505050565b5b818110156127455761273a60008261270e565b600181019050612727565b5050565b601f82111561278a5761275b8161262a565b6127648461263f565b81016020851015612773578190505b61278761277f8561263f565b830182612726565b50505b505050565b600082821c905092915050565b60006127ad6000198460080261278f565b1980831691505092915050565b60006127c6838361279c565b9150826002028217905092915050565b6127df82611af0565b67ffffffffffffffff8111156127f8576127f7611ba7565b5b61280282546123ce565b61280d828285612749565b600060209050601f831160018114612840576000841561282e578287015190505b61283885826127ba565b8655506128a0565b601f19841661284e8661262a565b60005b8281101561287657848901518255600182019150602085019450602081019050612851565b86831015612893578489015161288f601f89168261279c565b8355505b6001600288020188555050505b505050505050565b60006060820190506128bd60008301866119de565b6128ca6020830185612089565b81810360408301526128dc8184611b47565b9050949350505050565b7f4f776e61626c653a206e6577206f776e657220697320746865207a65726f206160008201527f6464726573730000000000000000000000000000000000000000000000000000602082015250565b6000612942602683611afb565b915061294d826128e6565b604082019050919050565b6000602082019050818103600083015261297181612935565b9050919050565b7f455243313135353a2069647320616e6420616d6f756e7473206c656e6774682060008201527f6d69736d61746368000000000000000000000000000000000000000000000000602082015250565b60006129d4602883611afb565b91506129df82612978565b604082019050919050565b60006020820190508181036000830152612a03816129c7565b9050919050565b7f455243313135353a207472616e7366657220746f20746865207a65726f20616460008201527f6472657373000000000000000000000000000000000000000000000000000000602082015250565b6000612a66602583611afb565b9150612a7182612a0a565b604082019050919050565b60006020820190508181036000830152612a9581612a59565b9050919050565b7f455243313135353a20696e73756666696369656e742062616c616e636520666f60008201527f72207472616e7366657200000000000000000000000000000000000000000000602082015250565b6000612af8602a83611afb565b9150612b0382612a9c565b604082019050919050565b60006020820190508181036000830152612b2781612aeb565b9050919050565b7f4e487b7100000000000000000000000000000000000000000000000000000000600052601160045260246000fd5b6000612b6882611968565b9150612b7383611968565b9250828201905080821115612b8b57612b8a612b2e565b5b92915050565b60006040820190508181036000830152612bab8185612009565b90508181036020830152612bbf8184612009565b90509392505050565b7f4f776e61626c653a2063616c6c6572206973206e6f7420746865206f776e6572600082015250565b6000612bfe602083611afb565b9150612c0982612bc8565b602082019050919050565b60006020820190508181036000830152612c2d81612bf1565b9050919050565b7f455243313135353a2073657474696e6720617070726f76616c2073746174757360008201527f20666f722073656c660000000000000000000000000000000000000000000000602082015250565b6000612c90602983611afb565b9150612c9b82612c34565b604082019050919050565b60006020820190508181036000830152612cbf81612c83565b9050919050565b7f455243313135353a206d696e7420746f20746865207a65726f2061646472657360008201527f7300000000000000000000000000000000000000000000000000000000000000602082015250565b6000612d22602183611afb565b9150612d2d82612cc6565b604082019050919050565b60006020820190508181036000830152612d5181612d15565b9050919050565b6000604082019050612d6d60008301856119de565b612d7a60208301846119de565b9392505050565b600081519050919050565b600082825260208201905092915050565b6000612da882612d81565b612db28185612d8c565b9350612dc2818560208601611b0c565b612dcb81611b36565b840191505092915050565b600060a082019050612deb6000830188612089565b612df86020830187612089565b8181036040830152612e0a8186612009565b90508181036060830152612e1e8185612009565b90508181036080830152612e328184612d9d565b90509695505050505050565b600081519050612e4d81611a34565b92915050565b600060208284031215612e6957612e68611900565b5b6000612e7784828501612e3e565b91505092915050565b60008160e01c9050919050565b600060033d1115612eac5760046000803e612ea9600051612e80565b90505b90565b600060443d10612f3c57612ec16118f6565b60043d036004823e80513d602482011167ffffffffffffffff82111715612ee9575050612f3c565b808201805167ffffffffffffffff811115612f075750505050612f3c565b80602083010160043d038501811115612f24575050505050612f3c565b612f3382602001850186611bd6565b82955050505050505b90565b7f455243313135353a207472616e7366657220746f206e6f6e2d4552433131353560008201527f526563656976657220696d706c656d656e746572000000000000000000000000602082015250565b6000612f9b603483611afb565b9150612fa682612f3f565b604082019050919050565b60006020820190508181036000830152612fca81612f8e565b9050919050565b7f455243313135353a204552433131353552656365697665722072656a6563746560008201527f6420746f6b656e73000000000000000000000000000000000000000000000000602082015250565b600061302d602883611afb565b915061303882612fd1565b604082019050919050565b6000602082019050818103600083015261305c81613020565b9050919050565b600060a0820190506130786000830188612089565b6130856020830187612089565b61309260408301866119de565b61309f60608301856119de565b81810360808301526130b18184612d9d565b9050969550505050505056fea264697066735822122053073deb9fa31254513087347079689f9b40489c858b7ede458b218305385e4864736f6c634300081c0033",
  "linkReferences": {},
  "deployedLinkReferences": {}
}